:020000040000FA
:10000000D8160020C1000000390E0000750D000058
:10001000FFFFFFFFFFFFFFFFFFFFFFFFFFFFFFFFF0
:10002000FFFFFFFFFFFFFFFFFFFFFFFF750E000059
:10003000FFFFFFFFFFFFFFFF5D0E0000510F0000FD
:1000400035010000350100003501000035010000D8
:1000500035010000350100003501000035010000C8
:1000600035010000FFFFFFFF3501000035010000F2
:10007000350100003501000035010000FFFFFFFFE2
:10008000FFFFFFFF350100003501000035010000D2
:100090003501000035010000350100003501000088
:1000A000511000003501000035010000350100004D
:1000B0003501000035010000350100003501000068
:1000C0001D4880471D4880471D4800471D4801695D
:1000D000002908D14169002905D18169002902D18F
:1000E000C169002909D01848C1680901090D002912
:1000F0000ED005290CD006290AD0BFF34F8F134824
:100100001349016013491248C860BFF34F8FFEE7DF
:100110000E4801680E48884200D070470E480F49CB
:1001200001600A480E4901607047FEE7FEE7FEE7FE
:10013000FEE7FEE7FEE70000CD000000550F0000DF
:100140006501000000030840800108400000002015
:100150000400FA0500ED00E0008108400100000005
:10016000000000000348854600F086F8004800477C
:10017000351F0000D816002030B50B460146002080
:100180002022012409E00D46D5409D4205D31D469D
:100190009540491B2546954040191546521E002D95
:1001A000F1DC30BD70B500242546002801DA0124B9
:1001B0004042002901DA01254942FFF7DDFFAC4248
:1001C00000D04042002C00D0494270BDD2B201E0C4
:1001D0000270401C491EFBD270470022F6E710B5A2
:1001E00013460A4604461946FFF7F0FF204610BDA5
:1001F000421E5378521C002BFBD10B781370491C04
:10020000521C002BF9D17047421C0178401C002978
:10021000FBD1801A7047F0B51FB40646002082B0AB
:1002200005464024019100901BE0019922460F46AB
:10023000304600F043F8049A059B801A994110D388
:1002400010461946224600F029F8361A8F410197C8
:10025000224601200021009F00F020F838184D416F
:1002600000902046641E0028DFDC019B0098294690
:10027000324607B0F0BD0000064C0125064E05E0F1
:10028000E36807CC2B430C3C98471034B442F7D3B7
:10029000FFF76CFF302800005028000010B5202A1E
:1002A00004DB0146203A9140002010BD91402023FC
:1002B0009C1A0346E3401943904010BD10B5202A14
:1002C00004DB0846203AD040002110BD0B46D34045
:1002D000D0402024A21A91400843194610BD0000C6
:1002E000FFB5FFB0FFB081B0FFA87D21856A446AE9
:1002F0001E46C90004A8FFF770FF444FF86B0028A2
:1003000005D143494348FFF768FF0120F86342A144
:1003100004A801F07DF804A93E48FFF769FFFFA893
:10032000C06A00213C2814DB0020FFAAD062396398
:10033000F86A6D1C401CF8623C2D0ADBF962B86A51
:10034000641C401C0D46B862182C0ADB0024BD62F8
:1003500003E0182C05DB0C46B962786A401C761C59
:100360007862642000F0B8FB2CA104A8FF9A01F089
:100370004FF804A92748FFF73BFFFFAAD06A039074
:100380000096029501949368526826A104A801F092
:100390003FF804A91F48FFF72BFFFFAA1C4C136B63
:1003A00029A2214604A801F019F804A91948FFF769
:1003B0001FFFFFAA536B24A2214604A801F00EF8E8
:1003C00004A91448FFF714FFFFAA926B20A104A808
:1003D00001F01EF804A90F48FFF70AFF386C401E11
:1003E000386409D11CA104A801F012F804A9094835
:1003F000FFF7FEFE01203864386B401C3863054867
:10040000FFF702FF7FB07FB005B0F0BD0400002011
:1004100088130000740000202100000025303264A1
:100420002C0000003230253032642D253032642D0E
:100430002530326420253032643A253032643A2542
:100440003032642C00000000253033642C000000A2
:1004500025303264000000005D000000FFB5FFB0F1
:10046000FEB0FFA81C3070C87D21C90002A8FFF7AC
:10047000B4FE824FF86B00281DD081A102A800F0C5
:10048000C7FF02A98048FFF7B3FE00213C2E1ADB0C
:100490003963F86A0026401C6D1CF8623C2D12DBA3
:1004A000F962B86A641C401C0D46B862182C11DB56
:1004B0000024BD620BE075497348FFF78EFE0120F2
:1004C00073A1F863DAE7182C04DB0C46B962786A8A
:1004D000401C7862642000F0FFFA6849FD98891C8E
:1004E000303008700A21FE98FFF75CFE634B303015
:1004F0001B1D1870303159700A21FF98FFF752FE0A
:100500005E4B30309B1D1870303159700A21786A6B
:10051000FFF748FE594A30300832107030315170C0
:100520000A212046FFF73EFE0246544B30320A3382
:100530001A70303159700A212846FFF733FE0246FF
:100540004E4B30320C331A70303159700A2130461C
:10055000FFF728FE0246494B30320E331A70303115
:100560005970FFA86421806AFFF71CFE434C3030AD
:100570001234A070FFA80A21806AFFF713FE0D460F
:100580000A21FFF70FFE30316170294630312170AA
:10059000FFA86421C06AFFF705FEE51C3030A87093
:1005A000FFA80A21C06AFFF7FDFD0E460A21FFF7EA
:1005B000F9FD30316970314630312970FFAB0A21C5
:1005C000186BFFF7EFFDA61E3030707030313170C0
:1005D00031A102A800F01CFF02A92B48FFF708FE7A
:1005E0002046103802782DA102A800F011FF02A9C0
:1005F0002548FFF7FDFD2178607801910090A378F0
:10060000224C2EA2214602A800F0E8FE02A91E48B4
:10061000FFF7EEFD2978687801910090AB7832A25F
:10062000214602A800F0DAFE02A91748FFF7E0FD14
:100630003378727837A102A800F0EAFE02A91248C6
:10064000FFF7D6FD396C491E39640CD13CA102A8D4
:1006500000F0DEFE02A90C48FFF7CAFD0120386455
:10066000642000F039FA386B401C38630648FFF705
:10067000CBFD7FB07FB003B0F0BD000004000020D0
:1006800032633061323000007400002088130000B3
:100690003562306132300000376200003061323044
:1006A00032323439343432323361323032322530FE
:1006B0003278323232633061000000003230323240
:1006C000353835663631373836393733323233617B
:1006D0003230323225303278253032782530327857
:1006E00032323263306100003230323235393566B1
:1006F000363137383639373332323361323032328D
:1007000025303278253032782530327832323263F3
:10071000306100003230323235613566363137387B
:100720003639373332323361323032322530327833
:1007300025303278323230613230376400000000C8
:100740003061356400000000F0B596460A46134952
:10075000C000461800230025FF2098402C46104278
:1007600016D00020012199408C461146C1406746B1
:10077000394206D087000F21B9400D437146B94078
:100780000C43401C0828F0D33068A8432043306055
:100790000833361D082BDEDDF0BD000020200240AE
:1007A00070B505460FA000F009FE134C01206063F0
:1007B000A169606CFFF711FD0020A0610FA000F09F
:1007C000FDFD00F029FB19A000F0F8FD00F024FB6E
:1007D000294620A000F0F2FD264927A000F0EEFDFA
:1007E00070BD000041542B434D51444953434F4E7B
:1007F0003D300D0A000000000400002041542B434E
:100800004D514E45573D2236312E35382E32343833
:100810002E313038222C2231383833222C333030EC
:1008200030302C313030300D0A00000041542B4361
:100830004D51434F4E3D302C332C22636C69656E15
:10084000745F4A65727279222C31302C312C300D54
:100850000A00000041542B434D515055423D302C6D
:10086000222F746573742F222C312C302C302C25C0
:10087000642C000074000020222573220D0A000061
:1008800010B511A000F09AFD124C204600F024F99A
:1008900011A000F093FD204600F01EF911A000F019
:1008A0008DFD00F0B9FA12A000F088FD204600F09E
:1008B00013F912A000F082FD00F0AEFA12A000F0D1
:1008C0007DFD00F05FFA10BD41542B474D520D0ADB
:1008D00000000000DC05000041542B43545A523DF7
:1008E000310D0A0041542B43545A553D310D0A0035
:1008F00041542B4352455345540D0A0041542B4358
:10090000475245473F0D0A0041542B43434C4B3F50
:100910000D0A000070B5184D0446686B4607760F47
:1009200000F02EF815492060330000F085FD081412
:1009300005070714140E1114606000E06160296A55
:100940006068052909D3400908E00120C003F3E7E6
:100950007D200002F0E70020EEE7C840A060A96A11
:100960004903490F072902D0C840E06070BD032148
:10097000FFF702FCF9E700000080084000127A004F
:100980000C490868C869C20F4868400AC007C00F10
:100990000ED00948002A0BD18869C00D0007000F4E
:1009A00000D110208969044A4902890F5043C84088
:1009B000704700000080084000127A001FB541090E
:1009C0000A4A89008A1800212E2800D10221C00677
:1009D000C00E1268032383401A40C2405418684670
:1009E000FFF798FF029804B0E04010BD388008403F
:1009F000F0B5084F7C6AFD6A3E6B84438D43964395
:100A0000002B02D004430D4316437C62FD623E631B
:100A1000F0BD0000008008401FB5002409200290AE
:100A2000009401940223224606210394802000F0C2
:100A300091F8322001F0C0FC0648022300780290B1
:100A400000940194002206210394802000F082F893
:100A50001FBD00005A0000201FB50024092002908D
:100A6000009401940223224606210394802000F082
:100A7000ABF8322001F0F4FC064802230078029023
:100A800000940194002206210394802000F09CF839
:100A90001FBD0000660000201FB50021122000913C
:100AA00001910A460391029001230621802000F063
:100AB00051F81FBD1FB500211220009101910A4677
:100AC0000391029001230621802000F07DF81FBDD4
:100AD000401EFDD270470000044A03E00021491C7B
:100AE0009142FCD3401EF9D270470000E02E000076
:100AF00003E00021491C0B29FCD3401EF9D27047AA
:100B0000002A026801D00A4300E08A43026070476D
:100B1000002A426801D00A4300E08A4342607047DD
:100B2000002A08D0012A09D082688A438260C268FC
:100B30008A43C260704782680A43F7E7C2680A4383
:100B4000C26082688A4382607047C069084000D0F2
:100B500001207047FFB585B01A4F96463A789C46FB
:100B60000E9B0F99109D1198009304920191039090
:100B7000002430260295634672460699059801F0D6
:100B80004BFDE00713D000233A783979304601F065
:100B900095F93879641C3018C6B2E4B20420FFF726
:100BA00097FF3879854204D9281AC5B2E9E740236E
:100BB000EAE740233A780021302001F067FA09B0D3
:100BC000F0BD000058000020FFB585B01A4F9646D2
:100BD0003A789C460E9B0F99109D119800930492B1
:100BE00001910390002430260295634672460699CF
:100BF000059801F04FFDE00713D000233A783979CA
:100C0000304601F079F93879641C3018C6B2E4B284
:100C10000420FFF75DFF3879854204D9281AC5B250
:100C2000E9E74023EAE740233A780021302001F049
:100C30004BFA09B0F0BD00006400002010B50E486A
:100C40000E4900780024087020463030C0B20021E0
:100C500001F0A6FD641C402CF6DB09480023027855
:100C60004021302001F048F96D2001F0F9FB0548E2
:100C70000078401E10BD00006900002065000020C3
:100C80006400002066000020F8B5124E124F134D8C
:100C900030783870002420463030C0B2002101F096
:100CA00037FD641C402CF6DB0D4800230278402100
:100CB000302001F003F9342001F07EFB2C7836203F
:100CC00001F07AFB2878002CE2D00028E0D0204602
:100CD000F8BD00005D000020590000205A000020EF
:100CE00058000020F8B5114E114F124D3078387071
:100CF000002420463030C0B2002101F009FD641C00
:100D0000402CF6DB0C48002302784021302001F013
:100D1000D5F8342001F050FB2C78362001F04CFB44
:100D20002878002CE2D00028E0D0F8BD5D0000203B
:100D3000590000205A000020580000201FB5002153
:100D40000820009101910A46039102900123062197
:100D50008020FFF7FFFE1FBD1FB500210820009176
:100D600001910A4603910290012306218020FFF79A
:100D70002BFF1FBD024801680029FCD0704700000E
:100D80005400002070B500242048FFF7A5FE214D37
:100D900000201F4A696C03E00B5C1355401C641C67
:100DA000AB699842F8D3907C0A243038D37C6043F6
:100DB00030381818E861507D937D30386043303802
:100DC00018182862107E537E303860433038181867
:100DD0006862D07E137F3038604328381818A862C4
:100DE000907FD37F30386043303818182032E86263
:100DF00050789378303860433038181828630021D1
:100E00000348FFF7EAF90020A86170BDB80B0000A5
:100E10007C1400200400002010B5FF20F530FFF7FF
:100E20005BFE044CA169606CFFF7D7F90020A0615C
:100E300010BD00000400002070470000054806496E
:100E400002E08A68272A03D0401EFAD101207047A9
:100E50000020704700366E0100A106407047000078
:100E60000349C2B20A600A69D205FCD57047000086
:100E7000000004407047000000B50C4A85B0002116
:100E80001070517001910291039104910B4602463A
:100E900000910521002001F0BFFB002240231146F4
:100EA000302001F00BF805B000BD00005800002014
:100EB00000B50C4A85B0002110705170019102916B
:100EC000039104910B46024600910521002001F098
:100ED000E1FB002240231146302001F00DF805B05F
:100EE00000BD00006400002010B50B4C86B02178D6
:100EF000002004910190029003900346012200908B
:100F0000092101F089FB402322780021302000F0E4
:100F1000D5FF06B010BD00005800002010B50B4CE6
:100F200086B021780020049101900290039003463E
:100F300001220090092101F0ADFB4023227800211D
:100F4000302000F0D9FF06B010BD00006400002082
:100F500070470000F0B539491020C860384A0120B8
:100F600010603849086B4025284308633648002341
:100F700044158668272EFCD100E044604668B6051B
:100F8000FBD500E043604668B605FBD41360486AB1
:100F9000032292029043486248680122D202104321
:100FA00048608868C008C007FBD04868C008C00017
:100FB000C01C4860486B4007400F0328FAD1234A01
:100FC0001068C008C000401C10600B624868A04355
:100FD000486008689615304308604868171538431C
:100FE000486088688008C007FBD0086BA843086386
:100FF0000868B04308600320000688614868204301
:10100000486088684008C007FBD01068C008C0006E
:10101000801C10600B624868C008C000401C48601B
:10102000486B4007400F0128FAD11068102108438F
:1010300010601068090208431060F0BD008108408C
:10104000008308400080084000A1064000020840DC
:1010500070B52A4D2021284600F05CF8002813D0F6
:10106000284600F0ABF8264C024621682548006867
:101070004318491C21601A702168802904D1216815
:10108000FFF7ABF8002020600221284600F047F867
:1010900000281CD08021284600F03CF8002816D0FB
:1010A000194C2068002812D0184802681178521C88
:1010B0000260284600F085F82168491E21602068FA
:1010C000002804D100220221284600F06FF80421F4
:1010D000284600F024F800280ED0FF2101312846D0
:1010E00000F018F8002807D000220421284600F05C
:1010F0005DF807490120086070BD00000000044051
:101100001C000020480000200000002050000020AB
:101110004C0000200069084000D001207047C068E2
:10112000084000D00120704770B504460D46C888BD
:101130008988626808432989184B1A40114308437B
:1011400069890843606001208007844206D1182025
:10115000FFF734FC2968FFF70FF8606210488442FB
:1011600006D11A20FFF72AFC2968FFF705F860620C
:101170000C48844206D11C20FFF720FC2968FEF7AA
:10118000FBFF60620848844206D11E20FFF716FC70
:101190002968FEF7F1FF606270BD0000FCE0FFFF10
:1011A000000004400010004000100440002AC26803
:1011B00001D00A4300E08A43C2607047006880B2F1
:1011C00070470160704710238B404168002A01D0AE
:1011D000194300E0994341607047000070B5234C0B
:1011E0000122D1032046FFF78BFC01229103204608
:1011F000FFF786FC0122D1022046FFF781FC012285
:1012000091022046FFF77CFC194C01220221204666
:10121000FFF776FC012204212046FFF771FC012232
:1012200008212046FFF76CFC00F008FC114D082057
:101230002870FFF783FD372001F0BEF80A20FFF782
:1012400047FC0D4C207828700120FFF715FEFFF7B2
:1012500023FCFFF7E1FB322001F0AEF807492078CC
:10126000087000F083FBFFF73FFE70BD00000B40ED
:1012700000600B405C0000205A00002004000020A9
:1012800070B5244C0122D1022046FFF739FC01221F
:1012900091022046FFF734FC1F4D0122D10328465E
:1012A000FFF72EFC012211461C48FFF729FC012202
:1012B000160231462846FFF723FC0122314620461C
:1012C000FFF71EFC012251022046FFF719FC00F037
:1012D0001DFC134C08202070FFF73EFD372001F065
:1012E000BFF80A20FFF7F4FB0E4D2878207002208B
:1012F000FFF7DEFDFFF7DEFBFFF7AEFB322001F06C
:10130000AFF809492878487000F048FBFFF706FE5F
:1013100070BD000000400B4000200B4000600B40FF
:101320006800002066000020040000203EB50F2069
:10133000212100244022000449020123FFF758FB29
:10134000FFF77CFD002800D0FEE70022202118488E
:10135000FFF7E6FB062210210020FFF7F5F9062231
:1013600020210020FFF7F0F9E12040020090FF204B
:1013700001940294013069468880CC800C814C81B4
:101380000C4C2046FFF7D0FE0B4AA1011160012250
:1013900011462046FFF70AFF012200212046FFF7F1
:1013A00012FF012211462046FFF70DFF3EBD00004F
:1013B00000000B400000044000E100E00FB410B555
:1013C00003A9044B044A029800F052F810BC08BC70
:1013D00004B0184765190000700000200FB41CB558
:1013E0000246002007AC00290BD0491E0191009253
:1013F000064B6A462146069800F03AF8009A00210A
:1014000011701CBC08BC04B018470000E5180000AF
:101410000FB410B504A9074B02AA039800F028F8EE
:10142000044602A9002000F068FA204610BC08BC5F
:1014300004B01847FB18000030B47446641E2578C9
:10144000641CAB4200D21D46635D5B00E31830BCF8
:10145000184702E008C8121F08C1002AFAD17047D5
:101460007047002001E001C1121F002AFBD1704724
:10147000FFB591B00F460546002606E025280AD0A4
:10148000149A139990476D1C761C28780028F5D182
:10149000304615B0F0BD002400940121F34A0294B7
:1014A00000E004436D1C2B780846203B9840104216
:1014B000F7D128782A280ED0022128780246303A1F
:1014C000092A15D8009A0A235A43303A80180C4347
:1014D0006D1C0090F1E701CF0090002805DA012093
:1014E00040030443009840420090022004436D1CD6
:1014F00028782E2815D10420044368786D1C2A28EA
:101500000AD101CF6D1C02900BE002990A225143CF
:10151000303940186D1C029028780146303909296D
:10152000F3D928786C2810D006DC4C281AD068280B
:101530000ED06A2817D104E0742813D07A2812D16B
:1015400010E00120400504430CE00121090501E001
:10155000032109050C436978814203D1012000056C
:1015600024186D1C6D1C287803906E281ED00CDC8E
:10157000632831D004DC00288AD0582811D1B2E089
:1015800064287BD069280CD178E073282DD004DC46
:101590006F2870D0702804D1A7E075286CD0782807
:1015A0006BD0149A13999047761C62E06002400F4A
:1015B000022807D003280AD0042838680AD0066019
:1015C0003F1D56E03868F11706604160F8E738685B
:1015D0000680F5E70670F3E738786946087400205E
:1015E000487404A80390012003E0386803900020A9
:1015F000C0433F1D61070FD5002101E00199491C3F
:10160000029A0191914213DA8142F7DB019A039920
:10161000895C0029F2D10BE0002101E00199491C0D
:1016200001918142FADB019A0399895C0029F5D185
:1016300001990098139A401A00902146149B00F0DB
:101640003BF901998019461807E00398039900783F
:10165000491C0391149A139990470198401E0190D8
:10166000401CF2D12146149B139A009800F014F903
:1016700086196D1C09E741E033E034E00A200021BF
:10168000049005916002410F022905D001CFC217D5
:101690009446032905D007E0FF1DFF08FF0003CF94
:1016A00006E000B2C2179446042902D140B2C11725
:1016B0008C4600226146944506DA0A4600214042E3
:1016C00091418C462D2102E0210504D52B216A464B
:1016D0001176012103E0E10701D02021F7E7019114
:1016E00054E00A200BE0102009E0102004900021B3
:1016F0000420044308200591029003E00820002103
:10170000059104906002410F022905D001CF00220B
:101710009446032906D006E0FF1DFF08FF0003CF13
:101720008C4603E080B2042900D1C0B200210191AF
:1017300021072BD50399702906D0049A1021059B07
:101740004A401A4305D00EE040216A461176012135
:1017500008E06146014306D030216A4611760399BC
:10176000517602210191049A0821059B4A401A43AF
:101770000CD16146014301D1610707D530216A468A
:101780001176012101910299491E0291039958296C
:1017900004D037A103910FA90F910DE039A1F9E70A
:1017A0006146059B049AFEF736FD039B8C469B5CC5
:1017B0000F9A521E0F92137061460143F0D10F9899
:1017C00007A9081A20300390600704D501200004FF
:1017D0008443029801E0012002900399884201DDD0
:1017E000401A00E000204118029001980918009862
:1017F000401A0090E00306D42146149B139A0098E7
:1018000000F05AF886190020049008E006A9085C48
:10181000149A139990470498401C761C04900199DF
:101820008842F3DBE0030CD52146149B139A009801
:1018300000F042F8861904E0149A3020139990477A
:10184000761C0299481E02900029F5DC08E00F98EA
:101850000F990078491C0F91149A13999047761CA0
:101860000399481E03900029F1DCFBE609280100DA
:101870003031323334353637383961626364656606
:1018800000000000303132333435363738394142C8
:101890004344454600000000F8B5044600251E46B6
:1018A0001746880404D405E039462020B0476D1C53
:1018B000641EF9D52846F8BDFFB50446002581B061
:1018C0001E46C80301D5302700E02027880404D530
:1018D00005E038460399B0476D1C641EF9D52846CB
:1018E00005B0F0BD4A68002A06D00A68531C0B6098
:1018F00010704868401E486070470A68531C0B60AF
:101900001070704770B506460020094C7D25ED002B
:10191000A060304600F05AF8A178480705D5A068C5
:10192000A84204D2401CA060F3E7C807F1D070BD04
:101930005800002070B506460020094C7D25ED00BA
:10194000A060304600F05EF8A178480705D5A06891
:10195000A84204D2401CA060F3E7C807F1D070BDD4
:101960006400002010B5FFF77BFA10BD70B50A4D7A
:101970003024204600F020FDA878072802D0201847
:10198000C4B2F6E7A41CE0B200F016FDA878400649
:10199000400E687170BD00005800002070B50A4DFF
:1019A0003024204600F05CFDA878072802D02018DB
:1019B000C4B2F6E7A41CE0B200F052FDA8784006DD
:1019C000400E687170BD00006400002010B5044630
:1019D000FF210D2000F09CFE2146002000F098FE23
:1019E000074C0D2000F0E8FCA078C007F9D0FF21DB
:1019F0000D2000F08DFE032000F0DEFC10BD000085
:101A00005800002010B50446FF210D2000F0C8FE4C
:101A10002146002000F0C4FE074C0D2000F020FD00
:101A2000A078C007F9D0FF210D2000F0B9FE0320F7
:101A300000F016FD10BD00006400002010B500F09D
:101A4000B5F9AE210F2000F063FE0F2000F0B4FCCA
:101A50000821052000F05CFE052000F0ADFC04200C
:101A6000FFF746F80021052000F052FE052000F0A7
:101A7000A3FC6121062000F04BFE062000F09CFC38
:101A8000214CFF210D2000F043FE0D2000F094FCBE
:101A9000A0784028F5D0C0B2802826D0E0210E20C2
:101AA00000F036FEEE210F2000F032FE212105204D
:101AB00000F02EFE0020E0705021032000F028FEF0
:101AC0000021042000F024FE0121002000F020FE6F
:101AD0000420FFF70DF8FF210D2000F019FE00F0A3
:101AE00039F9FA20FFF704F810BDE0210E2000F0CC
:101AF0000FFEAE210F2000F00BFE0521084600F07E
:101B000007FE2020D7E700005800002010B500F0A5
:101B10008BF9AE210F2000F043FE0F2000F0A0FC57
:101B20000821052000F03CFE052000F099FC04206F
:101B3000FEF7DEFF0021052000F032FE052000F058
:101B40008FFC6121062000F02BFE062000F088FCAF
:101B5000214CFF210D2000F023FE0D2000F080FC21
:101B6000A0784028F5D0C0B2802826D0E0210E20F1
:101B700000F016FEEE210F2000F012FE21210520BC
:101B800000F00EFE0020E0705021032000F008FE5F
:101B90000021042000F004FE0121002000F000FEDE
:101BA0000420FEF7A5FFFF210D2000F0F9FD00F055
:101BB000E7F8FA20FEF79CFF10BDE0210E2000F0B0
:101BC000EFFDAE210F2000F0EBFD0521084600F0EF
:101BD000E7FD2020D7E700006400002010B5C2090F
:101BE00080232B49002A0A6A01D01A4300E09A4355
:101BF0000A624006400E43064022002B0B6A01DABF
:101C0000134300E093430B628006800E830620227C
:101C1000002B0B6A01DA134300E093430B62C0060A
:101C2000C00EC2061023002A0A6A01DA1A4300E035
:101C30009A430A620007000F02070823002A0A6A73
:101C400001DA1A4300E09A430A624007400F430753
:101C50000422002B0B6A01DA134300E093430B626A
:101C60008007800F82070223002A0A6A01DA1A43DA
:101C700000E09A430A62C007086A02D001221043BA
:101C800001E04008400008620520FEF721FF10BD7A
:101C900000200B4010B5C20980232C49002A0A6A93
:101CA00001D01A4300E09A430A624006400E420601
:101CB0004023002A0A6A01DA1A4300E09A430A62C2
:101CC0008106890E8B0620222148002B036A01DA47
:101CD000134300E093430362C906C90ECA061023EA
:101CE000002A026A01DA1A4300E09A4302620907F5
:101CF000090F0A070823002A026A01DA1A4300E0E2
:101D00009A4302624907490F4A070423002A026ADC
:101D100001DA1A4300E09A4302628907890F8B07B0
:101D20000222002B036A01DA134300E093430362AB
:101D3000C907016A02D00122114301E049084900A4
:101D400001620520FEF7C4FE10BD000000000B403C
:101D500000400B4010B5052000F02EFB074C08207A
:101D6000A1780143052000F0D3FC0420FEF7C0FE5B
:101D7000A178052000F0CCFC10BD00005800002028
:101D800010B5052000F06CFB074C0820A17801433A
:101D9000052000F005FD0420FEF7AAFEA17805202D
:101DA00000F0FEFC10BD000064000020F8B51C4DE2
:101DB000286A0127FF03B84328620520FEF788FE42
:101DC000286A2915084328620520FEF781FE154C74
:101DD000206A0821084320620520FEF779FE206A68
:101DE0000426304320620520FEF772FE0420FEF731
:101DF0007FFE206AB04320620520FEF769FE0420C2
:101E0000FEF776FE206A304320620520FEF760FE72
:101E1000286A384328620520FEF75AFEF8BD000004
:101E200000000B4000600B4070B51C4C206A01267E
:101E3000F602B04320620520FEF74AFE1848016A08
:101E40000122114301620520FEF742FE206A61155E
:101E5000084320620520FEF73BFE206AA5152843B3
:101E600020620520FEF734FE0420FEF741FE206AC2
:101E7000A84320620520FEF72BFE0420FEF738FE63
:101E8000206A284320620520FEF722FE206A3043A4
:101E900020620520FEF71CFE70BD000000400B40D4
:101EA00000600B4010B503210843FFF72BFD10BD68
:101EB00010B503210843FFF73DFD10BD70B50D4679
:101EC00001461C461646012000F022FC294602204D
:101ED00000F01EFC3146042000F01AFC054D902055
:101EE00069780143032000F013FCE8782043FFF7F2
:101EF000D9FF70BD5800002070B50D4601461C4644
:101F00001646012000F04CFC2946022000F048FC57
:101F10003146042000F044FC054D902069780143CF
:101F2000032000F03DFCE8782043FFF7C1FF70BDBF
:101F30006400002094B0282106A8FEF74EF9002185
:101F40000120800401230A46FEF752FD0124434D7F
:101F50006403002221462846FEF7D2FD01222146D5
:101F60002846FEF7D5FD3F4C3D486064FFF7DEF99B
:101F7000FEF786FC01202064FFF730F97D24E400A1
:101F80002046FEF7A9FDFFF77BF92046FEF7A4FDEA
:101F900012AE002410AFFEF751FEA50070513220A2
:101FA000FEF79AFDFEF770FE7851FEF79BFE29467C
:101FB00011AD6850641CEED0C820FEF78DFD294994
:101FC0000020C8638863012149032448FEF7BDFD52
:101FD000012817D00024A00010AA37582B581258F7
:101FE0002048016B029103A98CC1C26A816A1C302E
:101FF000019200910EC80120FEF730FA0746641CDA
:10200000E9D016E000240125A00011AA3158125889
:1020100010AB185801230095049205910390029586
:1020200001951A4619461846FEF75AF90746641CE8
:10203000EAD0012149030948FEF787FD012803D0B2
:102040003846FEF7ADFB03E0074908A0FFF7B6F9F5
:1020500007490548FEF7C1F89BE7000000400B4028
:10206000FC130020040000207400002025730000F1
:102070008813000010B507210843FFF743FC10BD8B
:1020800010B507210843FFF755FC10BD70B50D468C
:1020900001461C461646012000F03AFB2946022064
:1020A00000F036FB3146042000F032FB054D1020D5
:1020B00069780143032000F02BFBE8782043FFF709
:1020C000D9FF70BD5800002070B50D4601461C4672
:1020D0001646012000F064FB2946022000F060FB58
:1020E0003146042000F05CFB054D10206978014367
:1020F000032000F055FBE8782043FFF7C1FF70BDD7
:102100006400002010B5544C01282BD001228021FE
:102110002046FEF7F5FC012240212046FEF7F0FCA8
:10212000012220212046FEF7EBFC0122102120464F
:10213000FEF7E6FC012208212046FEF7E1FC012221
:1021400004212046FEF7DCFC012202212046FEF796
:10215000D7FC012211462046FEF7D2FC0520FEF7EF
:10216000B7FC10BD002280212046FEF7C9FC0022EA
:1021700040212046FEF7C4FC002220212046FEF725
:10218000BFFC002210212046FEF7BAFC00220821E5
:102190002046FEF7B5FC002204212046FEF7B0FCE5
:1021A000002202212046FEF7ABFC0022012120463E
:1021B000FEF7A6FC002280212046FEF7B1FC00229B
:1021C00040212046FEF7ACFC002220212046FEF7ED
:1021D000A7FC002210212046FEF7A2FC00220821C5
:1021E0002046FEF79DFC002204212046FEF798FCC5
:1021F000002202212046FEF793FC00220121204606
:10220000FEF78EFC012280212046FEF781FC012290
:1022100040212046FEF77CFC012220212046FEF7CB
:1022200077FC012210212046FEF772FC01220821D2
:102230002046FEF76DFC012204212046FEF768FCD3
:10224000012202212046FEF763FC012211462046AE
:10225000FEF75EFC82E7000000200B4070B5544D95
:10226000544C01282BD0012280212846FEF748FC3F
:10227000012240212846FEF743FC0122202120466E
:10228000FEF73EFC012210212046FEF739FC012218
:1022900008212046FEF734FC012204212046FEF7E7
:1022A0002FFC012202212046FEF72AFC01221146C2
:1022B0002046FEF725FC0520FEF70AFC70BD002233
:1022C00080212846FEF71CFC002240212846FEF70C
:1022D00017FC002220212046FEF712FC00221021CC
:1022E0002046FEF70DFC002208212046FEF708FCE0
:1022F000002204212046FEF703FC00220221204692
:10230000FEF7FEFB002201212046FEF7F9FB00222A
:1023100080212846FEF704FC002240212846FEF7D3
:10232000FFFB002220212046FEF7FAFB00221021AD
:102330002046FEF7F5FB002208212046FEF7F0FBC1
:10234000002204212046FEF7EBFB0022022120465A
:10235000FEF7E6FB002201212046FEF7E1FB012209
:1023600080212846FEF7D4FB012240212846FEF7B3
:10237000CFFB012220212046FEF7CAFB01221021BB
:102380002046FEF7C5FB012208212046FEF7C0FBD0
:10239000012204212046FEF7BBFB01220221204638
:1023A000FEF7B6FB012211462046FEF7B1FB82E79D
:1023B00000000B4000400B40F8B5274C0546216A51
:1023C0000122D203914321620520FEF781FB2846BA
:1023D000FFF704FC6420FEF78BFB204D286A0226E1
:1023E000B04328620520FEF773FB206AB702B843AA
:1023F00020620520FEF76CFB206A3843206205202E
:10240000FEF766FBFF20FFF7E9FB6420FEF770FB99
:102410000120FFF777FE286A304328620520FEF787
:1024200057FB206A7503A84320620520FEF750FB86
:1024300000F06AF8206A284320620520FEF748FB76
:10244000206A6900084320620520FEF741FB002056
:10245000FFF758FEF8BD000000000B4000600B4085
:10246000F8B5274C0546216A0122D2029143216228
:102470000520FEF72DFB2846FFF70CFC6420FEF735
:1024800037FB204D286AA615B04328620520FEF7C9
:102490001FFB286AF701B84328620520FEF718FBE6
:1024A000286A384328620520FEF712FBFF20FFF759
:1024B000F1FB6420FEF71CFB0120FFF7CFFE286A2A
:1024C000304328620520FEF703FB206A2515A84348
:1024D00020620520FEF7FCFA00F052F8206A28433B
:1024E00020620520FEF7F4FA206A690008432062A2
:1024F0000520FEF7EDFA0020FFF7B0FEF8BD000062
:1025000000400B4000200B4010B51B48002181709B
:102510001A49CA69120601D580228270CA69520618
:1025200002D5827840328270CA69920602D58278DA
:1025300020328270CA69D20602D582781032827047
:10254000CA69120702D5827808328270CA695207B6
:1025500002D58278121D8270CA69920702D58278EC
:10256000921C8270C969C90702D08178491C8170A8
:102570000520FEF7ADFA10BD5800002000200B40EA
:1025800010B51C48002181701B49CA69120601D58B
:1025900080228270C969490602D5817840318170F4
:1025A0001649CA69920602D5827820328270CA69B9
:1025B000D20602D5827810328270CA69120702D51B
:1025C000827808328270CA69520702D58278121D59
:1025D0008270CA69920702D58278921C8270C9699A
:1025E000C90702D08178491C81700520FEF770FA76
:1025F00010BD00006400002000000B4000400B40B4
:1026000010B507210843FFF77DF910BD10B507216C
:102610000843FFF78FF910BDFFB581B00BACF0CCCC
:102620000146102000F074F81120029900F070F8B3
:102630001220039900F06CF81320049900F068F858
:1026400014200A9900F064F82146152000F060F883
:102650002946162000F05CF83146172000F058F8A3
:102660001021012000F054F80821022000F050F859
:102670003946042000F04CF8054CD0206178014325
:10268000032000F045F8E078FFF7BAFF05B0F0BD91
:1026900058000020FFB581B00BACF0CC01461020F3
:1026A00000F07EF81120029900F07AF812200399C8
:1026B00000F076F81320049900F072F814200A99BB
:1026C00000F06EF82146152000F06AF82946162021
:1026D00000F066F83146172000F062F81021012062
:1026E00000F05EF80821022000F05AF83946042074
:1026F00000F056F8054CD02061780143032000F02B
:102700004FF8E078FFF782FF05B0F0BD64000020CD
:10271000F3B5214C81B0216A05460127FF03B94377
:1027200021620520FEF7D4F92846FFF757FA1B4D22
:10273000286A0221884328620520FEF7C9F9206A29
:102740003E11B04320620520FEF7C2F9206A3043F3
:1027500020620520FEF7BCF90298FFF73FFA286ACD
:102760000221084328620520FEF7B2F9206AB0432F
:1027700020620520FEF7ACF9206A30432062052074
:10278000FEF7A6F9206A384320620520FEF7A0F97B
:10279000FF20FFF723FAFEBD00000B4000600B4056
:1027A000F3B5214D81B0296A04460127FF02B943E0
:1027B00029620520FEF78CF92046FFF76BFA1B4CC7
:1027C000206AA115884320620520FEF781F9206A5E
:1027D0003E01B04320620520FEF77AF9206A3043BB
:1027E00020620520FEF774F90298FFF753FA206A79
:1027F000A115084320620520FEF76AF9206AB0435C
:1028000020620520FEF764F9206A3043206205202B
:10281000FEF75EF9286A384328620520FEF758F96A
:10282000FF20FFF737FAFEBD00400B4000200B40B1
:102830005028000000000020740000005214000026
:10284000C428000074000020641600006214000018
:102850000000000000000000000000000000000078
:102860000000000000000000000000000000000068
:102870000100000001000000010000000100000054
:102880000000000000000000000000000000000048
:102890000000000001000000000000000000000037
:1028A0000000000000000000000000000000000028
:1028B0000000000000000000000000000000000018
:0428C0000000000014
:04000005000000C136
:00000001FF
